{
  "contractName": "NFTAuction",
  "abi": [
    {
      "inputs": [
        {
          "internalType": "uint256",
          "name": "_biddingTime",
          "type": "uint256"
        },
        {
          "internalType": "string",
          "name": "_auctionEndDate",
          "type": "string"
        },
        {
          "internalType": "address payable",
          "name": "_beneficiary",
          "type": "address"
        }
      ],
      "stateMutability": "nonpayable",
      "type": "constructor"
    },
    {
      "anonymous": false,
      "inputs": [
        {
          "indexed": false,
          "internalType": "address",
          "name": "winner",
          "type": "address"
        },
        {
          "indexed": false,
          "internalType": "uint256",
          "name": "amount",
          "type": "uint256"
        }
      ],
      "name": "AuctionEnded",
      "type": "event"
    },
    {
      "anonymous": false,
      "inputs": [
        {
          "indexed": false,
          "internalType": "address",
          "name": "bidder",
          "type": "address"
        },
        {
          "indexed": false,
          "internalType": "uint256",
          "name": "amount",
          "type": "uint256"
        }
      ],
      "name": "highestBidIncrease",
      "type": "event"
    },
    {
      "inputs": [],
      "name": "auctionEndDate",
      "outputs": [
        {
          "internalType": "string",
          "name": "",
          "type": "string"
        }
      ],
      "stateMutability": "view",
      "type": "function"
    },
    {
      "inputs": [],
      "name": "auctionEndTime",
      "outputs": [
        {
          "internalType": "uint256",
          "name": "",
          "type": "uint256"
        }
      ],
      "stateMutability": "view",
      "type": "function"
    },
    {
      "inputs": [],
      "name": "beneficiary",
      "outputs": [
        {
          "internalType": "address payable",
          "name": "",
          "type": "address"
        }
      ],
      "stateMutability": "view",
      "type": "function"
    },
    {
      "inputs": [
        {
          "internalType": "uint256",
          "name": "",
          "type": "uint256"
        }
      ],
      "name": "bids",
      "outputs": [
        {
          "internalType": "uint256",
          "name": "id",
          "type": "uint256"
        },
        {
          "internalType": "address",
          "name": "bidder",
          "type": "address"
        },
        {
          "internalType": "uint256",
          "name": "amount",
          "type": "uint256"
        },
        {
          "internalType": "bool",
          "name": "withdrawn",
          "type": "bool"
        }
      ],
      "stateMutability": "view",
      "type": "function"
    },
    {
      "inputs": [],
      "name": "highestBid",
      "outputs": [
        {
          "internalType": "uint256",
          "name": "",
          "type": "uint256"
        }
      ],
      "stateMutability": "view",
      "type": "function"
    },
    {
      "inputs": [],
      "name": "highestBidder",
      "outputs": [
        {
          "internalType": "address",
          "name": "",
          "type": "address"
        }
      ],
      "stateMutability": "view",
      "type": "function"
    },
    {
      "inputs": [
        {
          "internalType": "address",
          "name": "",
          "type": "address"
        }
      ],
      "name": "pendingReturns",
      "outputs": [
        {
          "internalType": "uint256",
          "name": "",
          "type": "uint256"
        }
      ],
      "stateMutability": "view",
      "type": "function"
    },
    {
      "inputs": [],
      "name": "getAllBids",
      "outputs": [
        {
          "components": [
            {
              "internalType": "uint256",
              "name": "id",
              "type": "uint256"
            },
            {
              "internalType": "address",
              "name": "bidder",
              "type": "address"
            },
            {
              "internalType": "uint256",
              "name": "amount",
              "type": "uint256"
            },
            {
              "internalType": "bool",
              "name": "withdrawn",
              "type": "bool"
            }
          ],
          "internalType": "struct NFTAuction.Bid[]",
          "name": "",
          "type": "tuple[]"
        }
      ],
      "stateMutability": "view",
      "type": "function"
    },
    {
      "inputs": [],
      "name": "bid",
      "outputs": [],
      "stateMutability": "payable",
      "type": "function"
    },
    {
      "inputs": [
        {
          "internalType": "uint256",
          "name": "_bidId",
          "type": "uint256"
        }
      ],
      "name": "withdraw",
      "outputs": [
        {
          "internalType": "bool",
          "name": "",
          "type": "bool"
        }
      ],
      "stateMutability": "nonpayable",
      "type": "function"
    },
    {
      "inputs": [],
      "name": "auctionEnd",
      "outputs": [],
      "stateMutability": "nonpayable",
      "type": "function"
    }
  ],
  "bytecode": "0x60806040526000600860006101000a81548160ff0219169083151502179055503480156200002c57600080fd5b50604051620019ec380380620019ec8339818101604052810190620000529190620003b6565b80600160006101000a81548173ffffffffffffffffffffffffffffffffffffffff021916908373ffffffffffffffffffffffffffffffffffffffff1602179055508242620000a1919062000460565b6002819055508160039080519060200190620000bf929190620000c9565b5050505062000522565b828054620000d790620004ec565b90600052602060002090601f016020900481019282620000fb576000855562000147565b82601f106200011657805160ff191683800117855562000147565b8280016001018555821562000147579182015b828111156200014657825182559160200191906001019062000129565b5b5090506200015691906200015a565b5090565b5b80821115620001755760008160009055506001016200015b565b5090565b6000604051905090565b600080fd5b600080fd5b6000819050919050565b620001a2816200018d565b8114620001ae57600080fd5b50565b600081519050620001c28162000197565b92915050565b600080fd5b600080fd5b6000601f19601f8301169050919050565b7f4e487b7100000000000000000000000000000000000000000000000000000000600052604160045260246000fd5b6200021d82620001d2565b810181811067ffffffffffffffff821117156200023f576200023e620001e3565b5b80604052505050565b60006200025462000179565b905062000262828262000212565b919050565b600067ffffffffffffffff821115620002855762000284620001e3565b5b6200029082620001d2565b9050602081019050919050565b60005b83811015620002bd578082015181840152602081019050620002a0565b83811115620002cd576000848401525b50505050565b6000620002ea620002e48462000267565b62000248565b905082815260208101848484011115620003095762000308620001cd565b5b620003168482856200029d565b509392505050565b600082601f830112620003365762000335620001c8565b5b815162000348848260208601620002d3565b91505092915050565b600073ffffffffffffffffffffffffffffffffffffffff82169050919050565b60006200037e8262000351565b9050919050565b620003908162000371565b81146200039c57600080fd5b50565b600081519050620003b08162000385565b92915050565b600080600060608486031215620003d257620003d162000183565b5b6000620003e286828701620001b1565b935050602084015167ffffffffffffffff81111562000406576200040562000188565b5b62000414868287016200031e565b925050604062000427868287016200039f565b9150509250925092565b7f4e487b7100000000000000000000000000000000000000000000000000000000600052601160045260246000fd5b60006200046d826200018d565b91506200047a836200018d565b9250827fffffffffffffffffffffffffffffffffffffffffffffffffffffffffffffffff03821115620004b257620004b162000431565b5b828201905092915050565b7f4e487b7100000000000000000000000000000000000000000000000000000000600052602260045260246000fd5b600060028204905060018216806200050557607f821691505b602082108114156200051c576200051b620004bd565b5b50919050565b6114ba80620005326000396000f3fe60806040526004361061009c5760003560e01c80633d827e05116100645780633d827e05146101675780634423c5f1146101925780634b449cba146101d25780638d0f6da3146101fd57806391f9015714610228578063d57bde79146102535761009c565b80631998aeef146100a157806326b387bb146100ab5780632a24f46c146100e85780632e1a7d4d146100ff57806338af3eed1461013c575b600080fd5b6100a961027e565b005b3480156100b757600080fd5b506100d260048036038101906100cd9190610c51565b6105a8565b6040516100df9190610c97565b60405180910390f35b3480156100f457600080fd5b506100fd6105c0565b005b34801561010b57600080fd5b5061012660048036038101906101219190610cde565b61073a565b6040516101339190610d26565b60405180910390f35b34801561014857600080fd5b506101516108ce565b60405161015e9190610d62565b60405180910390f35b34801561017357600080fd5b5061017c6108f4565b6040516101899190610e16565b60405180910390f35b34801561019e57600080fd5b506101b960048036038101906101b49190610cde565b610982565b6040516101c99493929190610e47565b60405180910390f35b3480156101de57600080fd5b506101e76109df565b6040516101f49190610c97565b60405180910390f35b34801561020957600080fd5b506102126109e5565b60405161021f9190610fbd565b60405180910390f35b34801561023457600080fd5b5061023d610b5e565b60405161024a9190610fdf565b60405180910390f35b34801561025f57600080fd5b50610268610b84565b6040516102759190610c97565b60405180910390f35b600160009054906101000a900473ffffffffffffffffffffffffffffffffffffffff1673ffffffffffffffffffffffffffffffffffffffff163373ffffffffffffffffffffffffffffffffffffffff16141561030f576040517f08c379a000000000000000000000000000000000000000000000000000000000815260040161030690611046565b60405180910390fd5b600254421115610354576040517f08c379a000000000000000000000000000000000000000000000000000000000815260040161034b906110b2565b60405180910390fd5b6005543411610398576040517f08c379a000000000000000000000000000000000000000000000000000000000815260040161038f90611144565b60405180910390fd5b60006005541461041d5760055460066000600460009054906101000a900473ffffffffffffffffffffffffffffffffffffffff1673ffffffffffffffffffffffffffffffffffffffff1673ffffffffffffffffffffffffffffffffffffffff16815260200190815260200160002060008282546104159190611193565b925050819055505b33600460006101000a81548173ffffffffffffffffffffffffffffffffffffffff021916908373ffffffffffffffffffffffffffffffffffffffff1602179055503460058190555061046f6000610b8a565b600061047b6000610ba0565b90506040518060800160405280828152602001600460009054906101000a900473ffffffffffffffffffffffffffffffffffffffff1673ffffffffffffffffffffffffffffffffffffffff168152602001600554815260200160001515815250600760008381526020019081526020016000206000820151816000015560208201518160010160006101000a81548173ffffffffffffffffffffffffffffffffffffffff021916908373ffffffffffffffffffffffffffffffffffffffff1602179055506040820151816002015560608201518160030160006101000a81548160ff0219169083151502179055509050507f123a2a99bd109b51e435e65e10a7230bdbd13b8a0fa2f7ee4ef740da1f86f0eb333460405161059d9291906111e9565b60405180910390a150565b60066020528060005260406000206000915090505481565b600254421015610605576040517f08c379a00000000000000000000000000000000000000000000000000000000081526004016105fc9061125e565b60405180910390fd5b600860009054906101000a900460ff1615610655576040517f08c379a000000000000000000000000000000000000000000000000000000000815260040161064c906112f0565b60405180910390fd5b6001600860006101000a81548160ff0219169083151502179055507fdaec4582d5d9595688c8c98545fdd1c696d41c6aeaeb636737e84ed2f5c00eda600460009054906101000a900473ffffffffffffffffffffffffffffffffffffffff166005546040516106c59291906111e9565b60405180910390a1600160009054906101000a900473ffffffffffffffffffffffffffffffffffffffff1673ffffffffffffffffffffffffffffffffffffffff166108fc6005549081150290604051600060405180830381858888f19350505050158015610737573d6000803e3d6000fd5b50565b600080600660003373ffffffffffffffffffffffffffffffffffffffff1673ffffffffffffffffffffffffffffffffffffffff1681526020019081526020016000205490506000811115610801576000600660003373ffffffffffffffffffffffffffffffffffffffff1673ffffffffffffffffffffffffffffffffffffffff1681526020019081526020016000208190555060016007600085815260200190815260200160002060030160006101000a81548160ff02191690831515021790555061083c565b6040517f08c379a00000000000000000000000000000000000000000000000000000000081526004016108339061135c565b60405180910390fd5b3373ffffffffffffffffffffffffffffffffffffffff166108fc829081150290604051600060405180830381858888f193505050506108c35780600660003373ffffffffffffffffffffffffffffffffffffffff1673ffffffffffffffffffffffffffffffffffffffff1681526020019081526020016000208190555060009150506108c9565b60019150505b919050565b600160009054906101000a900473ffffffffffffffffffffffffffffffffffffffff1681565b60038054610901906113ab565b80601f016020809104026020016040519081016040528092919081815260200182805461092d906113ab565b801561097a5780601f1061094f5761010080835404028352916020019161097a565b820191906000526020600020905b81548152906001019060200180831161095d57829003601f168201915b505050505081565b60076020528060005260406000206000915090508060000154908060010160009054906101000a900473ffffffffffffffffffffffffffffffffffffffff16908060020154908060030160009054906101000a900460ff16905084565b60025481565b606060006109f36000610ba0565b905060008167ffffffffffffffff811115610a1157610a106113dd565b5b604051908082528060200260200182016040528015610a4a57816020015b610a37610bae565b815260200190600190039081610a2f5790505b5090506000805b83811015610b54576000600182610a689190611193565b9050600060076000838152602001908152602001600020905080604051806080016040529081600082015481526020016001820160009054906101000a900473ffffffffffffffffffffffffffffffffffffffff1673ffffffffffffffffffffffffffffffffffffffff1673ffffffffffffffffffffffffffffffffffffffff168152602001600282015481526020016003820160009054906101000a900460ff161515151581525050858581518110610b2557610b2461140c565b5b6020026020010181905250600184610b3d9190611193565b935050508080610b4c9061143b565b915050610a51565b5081935050505090565b600460009054906101000a900473ffffffffffffffffffffffffffffffffffffffff1681565b60055481565b6001816000016000828254019250508190555050565b600081600001549050919050565b604051806080016040528060008152602001600073ffffffffffffffffffffffffffffffffffffffff168152602001600081526020016000151581525090565b600080fd5b600073ffffffffffffffffffffffffffffffffffffffff82169050919050565b6000610c1e82610bf3565b9050919050565b610c2e81610c13565b8114610c3957600080fd5b50565b600081359050610c4b81610c25565b92915050565b600060208284031215610c6757610c66610bee565b5b6000610c7584828501610c3c565b91505092915050565b6000819050919050565b610c9181610c7e565b82525050565b6000602082019050610cac6000830184610c88565b92915050565b610cbb81610c7e565b8114610cc657600080fd5b50565b600081359050610cd881610cb2565b92915050565b600060208284031215610cf457610cf3610bee565b5b6000610d0284828501610cc9565b91505092915050565b60008115159050919050565b610d2081610d0b565b82525050565b6000602082019050610d3b6000830184610d17565b92915050565b6000610d4c82610bf3565b9050919050565b610d5c81610d41565b82525050565b6000602082019050610d776000830184610d53565b92915050565b600081519050919050565b600082825260208201905092915050565b60005b83811015610db7578082015181840152602081019050610d9c565b83811115610dc6576000848401525b50505050565b6000601f19601f8301169050919050565b6000610de882610d7d565b610df28185610d88565b9350610e02818560208601610d99565b610e0b81610dcc565b840191505092915050565b60006020820190508181036000830152610e308184610ddd565b905092915050565b610e4181610c13565b82525050565b6000608082019050610e5c6000830187610c88565b610e696020830186610e38565b610e766040830185610c88565b610e836060830184610d17565b95945050505050565b600081519050919050565b600082825260208201905092915050565b6000819050602082019050919050565b610ec181610c7e565b82525050565b610ed081610c13565b82525050565b610edf81610d0b565b82525050565b608082016000820151610efb6000850182610eb8565b506020820151610f0e6020850182610ec7565b506040820151610f216040850182610eb8565b506060820151610f346060850182610ed6565b50505050565b6000610f468383610ee5565b60808301905092915050565b6000602082019050919050565b6000610f6a82610e8c565b610f748185610e97565b9350610f7f83610ea8565b8060005b83811015610fb0578151610f978882610f3a565b9750610fa283610f52565b925050600181019050610f83565b5085935050505092915050565b60006020820190508181036000830152610fd78184610f5f565b905092915050565b6000602082019050610ff46000830184610e38565b92915050565b7f4f776e65722063616e6e6f74206269642e000000000000000000000000000000600082015250565b6000611030601183610d88565b915061103b82610ffa565b602082019050919050565b6000602082019050818103600083015261105f81611023565b9050919050565b7f5468652061756374696f6e2068617320616c726561647920656e6465642e0000600082015250565b600061109c601e83610d88565b91506110a782611066565b602082019050919050565b600060208201905081810360008301526110cb8161108f565b9050919050565b7f546865726520697320616c7265616479206120686967686572206f722065717560008201527f616c206269642e00000000000000000000000000000000000000000000000000602082015250565b600061112e602783610d88565b9150611139826110d2565b604082019050919050565b6000602082019050818103600083015261115d81611121565b9050919050565b7f4e487b7100000000000000000000000000000000000000000000000000000000600052601160045260246000fd5b600061119e82610c7e565b91506111a983610c7e565b9250827fffffffffffffffffffffffffffffffffffffffffffffffffffffffffffffffff038211156111de576111dd611164565b5b828201905092915050565b60006040820190506111fe6000830185610e38565b61120b6020830184610c88565b9392505050565b7f41756374696f6e20686173206e6f7420656e646564207965742e000000000000600082015250565b6000611248601a83610d88565b915061125382611212565b602082019050919050565b600060208201905081810360008301526112778161123b565b9050919050565b7f41756374696f6e2068617320616c726561647920656e6465642c20617563746960008201527f6f6e20656e6465642063616c6c656420616c72656164792e0000000000000000602082015250565b60006112da603883610d88565b91506112e58261127e565b604082019050919050565b60006020820190508181036000830152611309816112cd565b9050919050565b7f4e6f2070656e64696e672072657475726e732e00000000000000000000000000600082015250565b6000611346601383610d88565b915061135182611310565b602082019050919050565b6000602082019050818103600083015261137581611339565b9050919050565b7f4e487b7100000000000000000000000000000000000000000000000000000000600052602260045260246000fd5b600060028204905060018216806113c357607f821691505b602082108114156113d7576113d661137c565b5b50919050565b7f4e487b7100000000000000000000000000000000000000000000000000000000600052604160045260246000fd5b7f4e487b7100000000000000000000000000000000000000000000000000000000600052603260045260246000fd5b600061144682610c7e565b91507fffffffffffffffffffffffffffffffffffffffffffffffffffffffffffffffff82141561147957611478611164565b5b60018201905091905056fea264697066735822122030b44a67682a055fbc95be2e8a01c5db034561de6f919468c027b9fa041b310f64736f6c634300080a0033",
  "immutableReferences": {},
  "source": "pragma solidity ^0.8.10;\n\nimport \"@openzeppelin/contracts/utils/Counters.sol\";\n\ncontract NFTAuction {\n    using Counters for Counters.Counter;\n    Counters.Counter private totalReturns;\n\n    address payable public beneficiary;\n    uint public auctionEndTime;\n    string public auctionEndDate;\n\n\n    address public highestBidder;\n    uint public highestBid;\n\n    mapping(address => uint) public pendingReturns;\n    mapping(uint => Bid) public bids;\n\n\n    bool ended = false;\n\n    event highestBidIncrease(address bidder, uint amount);\n    event AuctionEnded(address winner, uint amount);\n\n    struct Bid{uint id; address bidder; uint amount; bool withdrawn;}\n\n    constructor(uint _biddingTime, string memory _auctionEndDate, address payable _beneficiary) {\n      beneficiary = _beneficiary;\n      auctionEndTime = block.timestamp + _biddingTime;\n      auctionEndDate = _auctionEndDate;\n    }\n\n    modifier onlyNotOwner {\n    if (msg.sender == beneficiary) {\n      revert(\"Owner cannot bid.\");\n    }\n    _;\n    }\n\n    function getAllBids() public view returns (Bid[] memory) {\n      uint itemCount = totalReturns.current();\n      Bid[] memory items = new Bid[](itemCount);\n      uint currentIndex = 0;\n\n      for (uint i = 0; i < itemCount; i++) {\n        uint currentId = i + 1;\n        Bid storage currentItem = bids[currentId];\n        items[currentIndex] = currentItem;\n        currentIndex += 1;\n    }\n    return items;\n    }\n\n    function bid() onlyNotOwner public payable {\n      if(block.timestamp > auctionEndTime) {\n        revert(\"The auction has already ended.\");\n      }\n      if(msg.value <= highestBid) {\n        revert(\"There is already a higher or equal bid.\");\n      }\n      if(highestBid != 0) {\n        pendingReturns[highestBidder] += highestBid;\n      }\n      highestBidder = msg.sender;\n      highestBid = msg.value;\n      totalReturns.increment();\n      uint256 bidId = totalReturns.current();\n      bids[bidId] = Bid(bidId, highestBidder, highestBid, false);\n      emit highestBidIncrease(msg.sender, msg.value);\n    }\n\n\n    function withdraw(uint _bidId) public returns (bool) {\n      uint amount = pendingReturns[msg.sender];\n      if(amount > 0) {\n        pendingReturns[msg.sender] = 0;\n        bids[_bidId].withdrawn = true;\n      } else {\n        revert(\"No pending returns.\");\n      }\n\n      if(!payable(msg.sender).send(amount)) {\n        pendingReturns[msg.sender] = amount;\n        return false;\n      }\n      return true;\n    }\n    function auctionEnd() public {\n      if(block.timestamp < auctionEndTime) {\n        revert(\"Auction has not ended yet.\");\n      }\n      if(ended) {\n        revert(\"Auction has already ended, auction ended called already.\");\n      }\n      ended = true;\n      emit AuctionEnded(highestBidder, highestBid);\n      beneficiary.transfer(highestBid);\n    }\n\n\n}",
  "sourcePath": "/Users/apple/Documents/blockchain/truffle-next-3peaks/contracts/NFTAuction.sol",
  "compiler": {
    "name": "solc",
    "version": "0.8.10+commit.fc410830.Emscripten.clang"
  },
  "schemaVersion": "3.4.4",
  "updatedAt": "2022-01-28T14:09:26.212Z",
  "devdoc": {
    "kind": "dev",
    "methods": {},
    "version": 1
  },
  "userdoc": {
    "kind": "user",
    "methods": {},
    "version": 1
  }
}