{
  "contractName": "NFTMarket",
  "abi": [
    {
      "inputs": [],
      "stateMutability": "nonpayable",
      "type": "constructor"
    },
    {
      "anonymous": false,
      "inputs": [
        {
          "indexed": true,
          "internalType": "uint256",
          "name": "itemId",
          "type": "uint256"
        },
        {
          "indexed": true,
          "internalType": "address",
          "name": "nftContract",
          "type": "address"
        },
        {
          "indexed": true,
          "internalType": "uint256",
          "name": "tokenId",
          "type": "uint256"
        },
        {
          "indexed": false,
          "internalType": "address",
          "name": "seller",
          "type": "address"
        },
        {
          "indexed": false,
          "internalType": "address",
          "name": "owner",
          "type": "address"
        },
        {
          "indexed": false,
          "internalType": "uint256",
          "name": "price",
          "type": "uint256"
        },
        {
          "indexed": false,
          "internalType": "bool",
          "name": "sold",
          "type": "bool"
        }
      ],
      "name": "MarketItemCreated",
      "type": "event"
    },
    {
      "inputs": [],
      "name": "getListingPrice",
      "outputs": [
        {
          "internalType": "uint256",
          "name": "",
          "type": "uint256"
        }
      ],
      "stateMutability": "view",
      "type": "function",
      "constant": true
    },
    {
      "inputs": [
        {
          "internalType": "address",
          "name": "nftContract",
          "type": "address"
        },
        {
          "internalType": "uint256",
          "name": "tokenId",
          "type": "uint256"
        },
        {
          "internalType": "uint256",
          "name": "price",
          "type": "uint256"
        },
        {
          "internalType": "bool",
          "name": "_isAuction",
          "type": "bool"
        },
        {
          "internalType": "uint256",
          "name": "_biddingTime",
          "type": "uint256"
        },
        {
          "internalType": "string",
          "name": "_auctionEndDate",
          "type": "string"
        }
      ],
      "name": "createMarketItem",
      "outputs": [],
      "stateMutability": "payable",
      "type": "function",
      "payable": true
    },
    {
      "inputs": [
        {
          "internalType": "address",
          "name": "nftContract",
          "type": "address"
        },
        {
          "internalType": "uint256",
          "name": "itemId",
          "type": "uint256"
        },
        {
          "internalType": "uint256",
          "name": "price",
          "type": "uint256"
        },
        {
          "internalType": "bool",
          "name": "_isAuction",
          "type": "bool"
        },
        {
          "internalType": "uint256",
          "name": "_biddingTime",
          "type": "uint256"
        },
        {
          "internalType": "string",
          "name": "_auctionEndDate",
          "type": "string"
        }
      ],
      "name": "resaleBoughtItem",
      "outputs": [],
      "stateMutability": "payable",
      "type": "function",
      "payable": true
    },
    {
      "inputs": [
        {
          "internalType": "address",
          "name": "nftContract",
          "type": "address"
        },
        {
          "internalType": "uint256",
          "name": "itemId",
          "type": "uint256"
        }
      ],
      "name": "createMarketSale",
      "outputs": [],
      "stateMutability": "payable",
      "type": "function",
      "payable": true
    },
    {
      "inputs": [
        {
          "internalType": "address",
          "name": "nftContract",
          "type": "address"
        },
        {
          "internalType": "uint256",
          "name": "_itemId",
          "type": "uint256"
        },
        {
          "internalType": "address",
          "name": "_buyer",
          "type": "address"
        }
      ],
      "name": "transferAsset",
      "outputs": [
        {
          "internalType": "bool",
          "name": "",
          "type": "bool"
        }
      ],
      "stateMutability": "nonpayable",
      "type": "function"
    },
    {
      "inputs": [],
      "name": "fetchMarketItems",
      "outputs": [
        {
          "components": [
            {
              "internalType": "uint256",
              "name": "itemId",
              "type": "uint256"
            },
            {
              "internalType": "address",
              "name": "nftContract",
              "type": "address"
            },
            {
              "internalType": "uint256",
              "name": "tokenId",
              "type": "uint256"
            },
            {
              "internalType": "address payable",
              "name": "seller",
              "type": "address"
            },
            {
              "internalType": "address payable",
              "name": "owner",
              "type": "address"
            },
            {
              "internalType": "uint256",
              "name": "price",
              "type": "uint256"
            },
            {
              "internalType": "bool",
              "name": "sold",
              "type": "bool"
            },
            {
              "internalType": "address",
              "name": "auction",
              "type": "address"
            }
          ],
          "internalType": "struct NFTMarket.MarketItem[]",
          "name": "",
          "type": "tuple[]"
        }
      ],
      "stateMutability": "view",
      "type": "function",
      "constant": true
    },
    {
      "inputs": [],
      "name": "fetchMyNFTs",
      "outputs": [
        {
          "components": [
            {
              "internalType": "uint256",
              "name": "itemId",
              "type": "uint256"
            },
            {
              "internalType": "address",
              "name": "nftContract",
              "type": "address"
            },
            {
              "internalType": "uint256",
              "name": "tokenId",
              "type": "uint256"
            },
            {
              "internalType": "address payable",
              "name": "seller",
              "type": "address"
            },
            {
              "internalType": "address payable",
              "name": "owner",
              "type": "address"
            },
            {
              "internalType": "uint256",
              "name": "price",
              "type": "uint256"
            },
            {
              "internalType": "bool",
              "name": "sold",
              "type": "bool"
            },
            {
              "internalType": "address",
              "name": "auction",
              "type": "address"
            }
          ],
          "internalType": "struct NFTMarket.MarketItem[]",
          "name": "",
          "type": "tuple[]"
        }
      ],
      "stateMutability": "view",
      "type": "function",
      "constant": true
    },
    {
      "inputs": [],
      "name": "fetchItemsCreated",
      "outputs": [
        {
          "components": [
            {
              "internalType": "uint256",
              "name": "itemId",
              "type": "uint256"
            },
            {
              "internalType": "address",
              "name": "nftContract",
              "type": "address"
            },
            {
              "internalType": "uint256",
              "name": "tokenId",
              "type": "uint256"
            },
            {
              "internalType": "address payable",
              "name": "seller",
              "type": "address"
            },
            {
              "internalType": "address payable",
              "name": "owner",
              "type": "address"
            },
            {
              "internalType": "uint256",
              "name": "price",
              "type": "uint256"
            },
            {
              "internalType": "bool",
              "name": "sold",
              "type": "bool"
            },
            {
              "internalType": "address",
              "name": "auction",
              "type": "address"
            }
          ],
          "internalType": "struct NFTMarket.MarketItem[]",
          "name": "",
          "type": "tuple[]"
        }
      ],
      "stateMutability": "view",
      "type": "function",
      "constant": true
    },
    {
      "inputs": [
        {
          "internalType": "uint256",
          "name": "_id",
          "type": "uint256"
        }
      ],
      "name": "getItemByID",
      "outputs": [
        {
          "components": [
            {
              "internalType": "uint256",
              "name": "itemId",
              "type": "uint256"
            },
            {
              "internalType": "address",
              "name": "nftContract",
              "type": "address"
            },
            {
              "internalType": "uint256",
              "name": "tokenId",
              "type": "uint256"
            },
            {
              "internalType": "address payable",
              "name": "seller",
              "type": "address"
            },
            {
              "internalType": "address payable",
              "name": "owner",
              "type": "address"
            },
            {
              "internalType": "uint256",
              "name": "price",
              "type": "uint256"
            },
            {
              "internalType": "bool",
              "name": "sold",
              "type": "bool"
            },
            {
              "internalType": "address",
              "name": "auction",
              "type": "address"
            }
          ],
          "internalType": "struct NFTMarket.MarketItem",
          "name": "",
          "type": "tuple"
        }
      ],
      "stateMutability": "view",
      "type": "function",
      "constant": true
    }
  ],
  "bytecode": "0x60806040526658d15e1762800060045534801561001b57600080fd5b50600160008190555033600360006101000a81548173ffffffffffffffffffffffffffffffffffffffff021916908373ffffffffffffffffffffffffffffffffffffffff160217905550614483806100746000396000f3fe608060405260043610620000925760003560e01c8063433ea7471162000061578063433ea747146200016b57806347afbe5e14620001af5780639aae36f114620001cf578063c23b139e14620001ef578063f064c32e146200020f5762000092565b80630f08efe0146200009757806312e8558514620000c7578063202e374014620000f75780632cef206d1462000127575b600080fd5b348015620000a457600080fd5b50620000af6200023f565b604051620000be919062001fb9565b60405180910390f35b348015620000d457600080fd5b50620000df6200057d565b604051620000ee919062001fee565b60405180910390f35b3480156200010457600080fd5b506200010f62000587565b6040516200011e919062001fb9565b60405180910390f35b3480156200013457600080fd5b506200015360048036038101906200014d919062002081565b6200094c565b604051620001629190620020ee565b60405180910390f35b3480156200017857600080fd5b506200019760048036038101906200019191906200210b565b62000a77565b604051620001a69190620021ef565b60405180910390f35b620001cd6004803603810190620001c79190620023a0565b62000c38565b005b620001ed6004803603810190620001e79190620023a0565b62000fb6565b005b6200020d60048036038101906200020791906200245b565b620015eb565b005b3480156200021c57600080fd5b5062000227620018b2565b60405162000236919062001fb9565b60405180910390f35b606060006200024f600162001c77565b905060006200025f600262001c77565b6200026b600162001c77565b620002779190620024d1565b90506000808267ffffffffffffffff81111562000299576200029862002259565b5b604051908082528060200260200182016040528015620002d657816020015b620002c262001cfa565b815260200190600190039081620002b85790505b50905060005b848110156200057257600073ffffffffffffffffffffffffffffffffffffffff16600560006001846200031091906200250c565b815260200190815260200160002060040160009054906101000a900473ffffffffffffffffffffffffffffffffffffffff1673ffffffffffffffffffffffffffffffffffffffff1614156200055c5760006001826200037091906200250c565b905060006005600083815260200190815260200160002090508060405180610100016040529081600082015481526020016001820160009054906101000a900473ffffffffffffffffffffffffffffffffffffffff1673ffffffffffffffffffffffffffffffffffffffff1673ffffffffffffffffffffffffffffffffffffffff168152602001600282015481526020016003820160009054906101000a900473ffffffffffffffffffffffffffffffffffffffff1673ffffffffffffffffffffffffffffffffffffffff1673ffffffffffffffffffffffffffffffffffffffff1681526020016004820160009054906101000a900473ffffffffffffffffffffffffffffffffffffffff1673ffffffffffffffffffffffffffffffffffffffff1673ffffffffffffffffffffffffffffffffffffffff168152602001600582015481526020016006820160009054906101000a900460ff161515151581526020016006820160019054906101000a900473ffffffffffffffffffffffffffffffffffffffff1673ffffffffffffffffffffffffffffffffffffffff1673ffffffffffffffffffffffffffffffffffffffff16815250508486815181106200053d576200053c62002569565b5b60200260200101819052506001856200055791906200250c565b945050505b8080620005699062002598565b915050620002dc565b508094505050505090565b6000600454905090565b6060600062000597600162001c77565b905060008060005b8381101562000649573373ffffffffffffffffffffffffffffffffffffffff1660056000600184620005d291906200250c565b815260200190815260200160002060040160009054906101000a900473ffffffffffffffffffffffffffffffffffffffff1673ffffffffffffffffffffffffffffffffffffffff16141562000633576001836200063091906200250c565b92505b8080620006409062002598565b9150506200059f565b5060008267ffffffffffffffff81111562000669576200066862002259565b5b604051908082528060200260200182016040528015620006a657816020015b6200069262001cfa565b815260200190600190039081620006885790505b50905060005b8481101562000941573373ffffffffffffffffffffffffffffffffffffffff1660056000600184620006df91906200250c565b815260200190815260200160002060040160009054906101000a900473ffffffffffffffffffffffffffffffffffffffff1673ffffffffffffffffffffffffffffffffffffffff1614156200092b5760006001826200073f91906200250c565b905060006005600083815260200190815260200160002090508060405180610100016040529081600082015481526020016001820160009054906101000a900473ffffffffffffffffffffffffffffffffffffffff1673ffffffffffffffffffffffffffffffffffffffff1673ffffffffffffffffffffffffffffffffffffffff168152602001600282015481526020016003820160009054906101000a900473ffffffffffffffffffffffffffffffffffffffff1673ffffffffffffffffffffffffffffffffffffffff1673ffffffffffffffffffffffffffffffffffffffff1681526020016004820160009054906101000a900473ffffffffffffffffffffffffffffffffffffffff1673ffffffffffffffffffffffffffffffffffffffff1673ffffffffffffffffffffffffffffffffffffffff168152602001600582015481526020016006820160009054906101000a900460ff161515151581526020016006820160019054906101000a900473ffffffffffffffffffffffffffffffffffffffff1673ffffffffffffffffffffffffffffffffffffffff1673ffffffffffffffffffffffffffffffffffffffff16815250508486815181106200090c576200090b62002569565b5b60200260200101819052506001856200092691906200250c565b945050505b8080620009389062002598565b915050620006ac565b508094505050505090565b600080600560008581526020019081526020016000206002015490508473ffffffffffffffffffffffffffffffffffffffff166323b872dd3085846040518463ffffffff1660e01b8152600401620009a793929190620025f7565b600060405180830381600087803b158015620009c257600080fd5b505af1158015620009d7573d6000803e3d6000fd5b50505050826005600086815260200190815260200160002060040160006101000a81548173ffffffffffffffffffffffffffffffffffffffff021916908373ffffffffffffffffffffffffffffffffffffffff16021790555060016005600086815260200190815260200160002060060160006101000a81548160ff02191690831515021790555062000a6b600262001c85565b60019150509392505050565b62000a8162001cfa565b6005600083815260200190815260200160002060405180610100016040529081600082015481526020016001820160009054906101000a900473ffffffffffffffffffffffffffffffffffffffff1673ffffffffffffffffffffffffffffffffffffffff1673ffffffffffffffffffffffffffffffffffffffff168152602001600282015481526020016003820160009054906101000a900473ffffffffffffffffffffffffffffffffffffffff1673ffffffffffffffffffffffffffffffffffffffff1673ffffffffffffffffffffffffffffffffffffffff1681526020016004820160009054906101000a900473ffffffffffffffffffffffffffffffffffffffff1673ffffffffffffffffffffffffffffffffffffffff1673ffffffffffffffffffffffffffffffffffffffff168152602001600582015481526020016006820160009054906101000a900460ff161515151581526020016006820160019054906101000a900473ffffffffffffffffffffffffffffffffffffffff1673ffffffffffffffffffffffffffffffffffffffff1673ffffffffffffffffffffffffffffffffffffffff16815250509050919050565b6002600054141562000c81576040517f08c379a000000000000000000000000000000000000000000000000000000000815260040162000c789062002695565b60405180910390fd5b60026000819055506005600086815260200190815260200160002060040160009054906101000a900473ffffffffffffffffffffffffffffffffffffffff1673ffffffffffffffffffffffffffffffffffffffff163373ffffffffffffffffffffffffffffffffffffffff161462000d30576040517f08c379a000000000000000000000000000000000000000000000000000000000815260040162000d279062002707565b60405180910390fd5b600454341462000d77576040517f08c379a000000000000000000000000000000000000000000000000000000000815260040162000d6e906200279f565b60405180910390fd5b600060056000878152602001908152602001600020600201549050831562000e3157600083833360405162000dac9062001d99565b62000dba9392919062002854565b604051809103906000f08015801562000dd7573d6000803e3d6000fd5b509050806005600089815260200190815260200160002060060160016101000a81548173ffffffffffffffffffffffffffffffffffffffff021916908373ffffffffffffffffffffffffffffffffffffffff160217905550505b846005600088815260200190815260200160002060050181905550336005600088815260200190815260200160002060030160006101000a81548173ffffffffffffffffffffffffffffffffffffffff021916908373ffffffffffffffffffffffffffffffffffffffff16021790555060006005600088815260200190815260200160002060040160006101000a81548173ffffffffffffffffffffffffffffffffffffffff021916908373ffffffffffffffffffffffffffffffffffffffff16021790555060006005600088815260200190815260200160002060060160006101000a81548160ff0219169083151502179055508673ffffffffffffffffffffffffffffffffffffffff166323b872dd3330846040518463ffffffff1660e01b815260040162000f6593929190620025f7565b600060405180830381600087803b15801562000f8057600080fd5b505af115801562000f95573d6000803e3d6000fd5b5050505062000fa5600262001c9b565b506001600081905550505050505050565b6002600054141562000fff576040517f08c379a000000000000000000000000000000000000000000000000000000000815260040162000ff69062002695565b60405180910390fd5b6002600081905550600084116200104d576040517f08c379a00000000000000000000000000000000000000000000000000000000081526004016200104490620028e8565b60405180910390fd5b600454341462001094576040517f08c379a00000000000000000000000000000000000000000000000000000000081526004016200108b906200279f565b60405180910390fd5b620010a0600162001c85565b6000620010ae600162001c77565b9050831562001305576000838333604051620010ca9062001d99565b620010d89392919062002854565b604051809103906000f080158015620010f5573d6000803e3d6000fd5b5090506040518061010001604052808381526020018973ffffffffffffffffffffffffffffffffffffffff1681526020018881526020013373ffffffffffffffffffffffffffffffffffffffff168152602001600073ffffffffffffffffffffffffffffffffffffffff1681526020018781526020016000151581526020018273ffffffffffffffffffffffffffffffffffffffff16815250600560008481526020019081526020016000206000820151816000015560208201518160010160006101000a81548173ffffffffffffffffffffffffffffffffffffffff021916908373ffffffffffffffffffffffffffffffffffffffff1602179055506040820151816002015560608201518160030160006101000a81548173ffffffffffffffffffffffffffffffffffffffff021916908373ffffffffffffffffffffffffffffffffffffffff16021790555060808201518160040160006101000a81548173ffffffffffffffffffffffffffffffffffffffff021916908373ffffffffffffffffffffffffffffffffffffffff16021790555060a0820151816005015560c08201518160060160006101000a81548160ff02191690831515021790555060e08201518160060160016101000a81548173ffffffffffffffffffffffffffffffffffffffff021916908373ffffffffffffffffffffffffffffffffffffffff160217905550905050506200150d565b6040518061010001604052808281526020018873ffffffffffffffffffffffffffffffffffffffff1681526020018781526020013373ffffffffffffffffffffffffffffffffffffffff168152602001600073ffffffffffffffffffffffffffffffffffffffff168152602001868152602001600015158152602001600073ffffffffffffffffffffffffffffffffffffffff16815250600560008381526020019081526020016000206000820151816000015560208201518160010160006101000a81548173ffffffffffffffffffffffffffffffffffffffff021916908373ffffffffffffffffffffffffffffffffffffffff1602179055506040820151816002015560608201518160030160006101000a81548173ffffffffffffffffffffffffffffffffffffffff021916908373ffffffffffffffffffffffffffffffffffffffff16021790555060808201518160040160006101000a81548173ffffffffffffffffffffffffffffffffffffffff021916908373ffffffffffffffffffffffffffffffffffffffff16021790555060a0820151816005015560c08201518160060160006101000a81548160ff02191690831515021790555060e08201518160060160016101000a81548173ffffffffffffffffffffffffffffffffffffffff021916908373ffffffffffffffffffffffffffffffffffffffff1602179055509050505b8673ffffffffffffffffffffffffffffffffffffffff166323b872dd3330896040518463ffffffff1660e01b81526004016200154c93929190620025f7565b600060405180830381600087803b1580156200156757600080fd5b505af11580156200157c573d6000803e3d6000fd5b50505050858773ffffffffffffffffffffffffffffffffffffffff16827f045dfa01dcba2b36aba1d3dc4a874f4b0c5d2fbeb8d2c4b34a7d88c8d8f929d13360008a6000604051620015d294939291906200290a565b60405180910390a4506001600081905550505050505050565b6002600054141562001634576040517f08c379a00000000000000000000000000000000000000000000000000000000081526004016200162b9062002695565b60405180910390fd5b6002600081905550600060056000838152602001908152602001600020600501549050600060056000848152602001908152602001600020600201549050813414620016b7576040517f08c379a0000000000000000000000000000000000000000000000000000000008152600401620016ae90620029cd565b60405180910390fd5b6005600084815260200190815260200160002060030160009054906101000a900473ffffffffffffffffffffffffffffffffffffffff1673ffffffffffffffffffffffffffffffffffffffff166108fc349081150290604051600060405180830381858888f1935050505015801562001734573d6000803e3d6000fd5b508373ffffffffffffffffffffffffffffffffffffffff166323b872dd3033846040518463ffffffff1660e01b81526004016200177493929190620025f7565b600060405180830381600087803b1580156200178f57600080fd5b505af1158015620017a4573d6000803e3d6000fd5b50505050336005600085815260200190815260200160002060040160006101000a81548173ffffffffffffffffffffffffffffffffffffffff021916908373ffffffffffffffffffffffffffffffffffffffff16021790555060016005600085815260200190815260200160002060060160006101000a81548160ff02191690831515021790555062001838600262001c85565b600360009054906101000a900473ffffffffffffffffffffffffffffffffffffffff1673ffffffffffffffffffffffffffffffffffffffff166108fc6004549081150290604051600060405180830381858888f19350505050158015620018a3573d6000803e3d6000fd5b50505060016000819055505050565b60606000620018c2600162001c77565b905060008060005b8381101562001974573373ffffffffffffffffffffffffffffffffffffffff1660056000600184620018fd91906200250c565b815260200190815260200160002060030160009054906101000a900473ffffffffffffffffffffffffffffffffffffffff1673ffffffffffffffffffffffffffffffffffffffff1614156200195e576001836200195b91906200250c565b92505b80806200196b9062002598565b915050620018ca565b5060008267ffffffffffffffff81111562001994576200199362002259565b5b604051908082528060200260200182016040528015620019d157816020015b620019bd62001cfa565b815260200190600190039081620019b35790505b50905060005b8481101562001c6c573373ffffffffffffffffffffffffffffffffffffffff166005600060018462001a0a91906200250c565b815260200190815260200160002060030160009054906101000a900473ffffffffffffffffffffffffffffffffffffffff1673ffffffffffffffffffffffffffffffffffffffff16141562001c5657600060018262001a6a91906200250c565b905060006005600083815260200190815260200160002090508060405180610100016040529081600082015481526020016001820160009054906101000a900473ffffffffffffffffffffffffffffffffffffffff1673ffffffffffffffffffffffffffffffffffffffff1673ffffffffffffffffffffffffffffffffffffffff168152602001600282015481526020016003820160009054906101000a900473ffffffffffffffffffffffffffffffffffffffff1673ffffffffffffffffffffffffffffffffffffffff1673ffffffffffffffffffffffffffffffffffffffff1681526020016004820160009054906101000a900473ffffffffffffffffffffffffffffffffffffffff1673ffffffffffffffffffffffffffffffffffffffff1673ffffffffffffffffffffffffffffffffffffffff168152602001600582015481526020016006820160009054906101000a900460ff161515151581526020016006820160019054906101000a900473ffffffffffffffffffffffffffffffffffffffff1673ffffffffffffffffffffffffffffffffffffffff1673ffffffffffffffffffffffffffffffffffffffff168152505084868151811062001c375762001c3662002569565b5b602002602001018190525060018562001c5191906200250c565b945050505b808062001c639062002598565b915050620019d7565b508094505050505090565b600081600001549050919050565b6001816000016000828254019250508190555050565b6000816000015490506000811162001cea576040517f08c379a000000000000000000000000000000000000000000000000000000000815260040162001ce19062002a3f565b60405180910390fd5b6001810382600001819055505050565b60405180610100016040528060008152602001600073ffffffffffffffffffffffffffffffffffffffff16815260200160008152602001600073ffffffffffffffffffffffffffffffffffffffff168152602001600073ffffffffffffffffffffffffffffffffffffffff16815260200160008152602001600015158152602001600073ffffffffffffffffffffffffffffffffffffffff1681525090565b6119ec8062002a6283390190565b600081519050919050565b600082825260208201905092915050565b6000819050602082019050919050565b6000819050919050565b62001de88162001dd3565b82525050565b600073ffffffffffffffffffffffffffffffffffffffff82169050919050565b600062001e1b8262001dee565b9050919050565b62001e2d8162001e0e565b82525050565b600062001e408262001dee565b9050919050565b62001e528162001e33565b82525050565b60008115159050919050565b62001e6f8162001e58565b82525050565b6101008201600082015162001e8e600085018262001ddd565b50602082015162001ea3602085018262001e22565b50604082015162001eb8604085018262001ddd565b50606082015162001ecd606085018262001e47565b50608082015162001ee2608085018262001e47565b5060a082015162001ef760a085018262001ddd565b5060c082015162001f0c60c085018262001e64565b5060e082015162001f2160e085018262001e22565b50505050565b600062001f35838362001e75565b6101008301905092915050565b6000602082019050919050565b600062001f5c8262001da7565b62001f68818562001db2565b935062001f758362001dc3565b8060005b8381101562001fac57815162001f90888262001f27565b975062001f9d8362001f42565b92505060018101905062001f79565b5085935050505092915050565b6000602082019050818103600083015262001fd5818462001f4f565b905092915050565b62001fe88162001dd3565b82525050565b600060208201905062002005600083018462001fdd565b92915050565b6000604051905090565b600080fd5b600080fd5b6200202a8162001e0e565b81146200203657600080fd5b50565b6000813590506200204a816200201f565b92915050565b6200205b8162001dd3565b81146200206757600080fd5b50565b6000813590506200207b8162002050565b92915050565b6000806000606084860312156200209d576200209c62002015565b5b6000620020ad8682870162002039565b9350506020620020c0868287016200206a565b9250506040620020d38682870162002039565b9150509250925092565b620020e88162001e58565b82525050565b6000602082019050620021056000830184620020dd565b92915050565b60006020828403121562002124576200212362002015565b5b600062002134848285016200206a565b91505092915050565b6101008201600082015162002156600085018262001ddd565b5060208201516200216b602085018262001e22565b50604082015162002180604085018262001ddd565b50606082015162002195606085018262001e47565b506080820151620021aa608085018262001e47565b5060a0820151620021bf60a085018262001ddd565b5060c0820151620021d460c085018262001e64565b5060e0820151620021e960e085018262001e22565b50505050565b6000610100820190506200220760008301846200213d565b92915050565b620022188162001e58565b81146200222457600080fd5b50565b60008135905062002238816200220d565b92915050565b600080fd5b600080fd5b6000601f19601f8301169050919050565b7f4e487b7100000000000000000000000000000000000000000000000000000000600052604160045260246000fd5b620022938262002248565b810181811067ffffffffffffffff82111715620022b557620022b462002259565b5b80604052505050565b6000620022ca6200200b565b9050620022d8828262002288565b919050565b600067ffffffffffffffff821115620022fb57620022fa62002259565b5b620023068262002248565b9050602081019050919050565b82818337600083830152505050565b6000620023396200233384620022dd565b620022be565b90508281526020810184848401111562002358576200235762002243565b5b6200236584828562002313565b509392505050565b600082601f8301126200238557620023846200223e565b5b81356200239784826020860162002322565b91505092915050565b60008060008060008060c08789031215620023c057620023bf62002015565b5b6000620023d089828a0162002039565b9650506020620023e389828a016200206a565b9550506040620023f689828a016200206a565b94505060606200240989828a0162002227565b93505060806200241c89828a016200206a565b92505060a087013567ffffffffffffffff81111562002440576200243f6200201a565b5b6200244e89828a016200236d565b9150509295509295509295565b6000806040838503121562002475576200247462002015565b5b6000620024858582860162002039565b925050602062002498858286016200206a565b9150509250929050565b7f4e487b7100000000000000000000000000000000000000000000000000000000600052601160045260246000fd5b6000620024de8262001dd3565b9150620024eb8362001dd3565b925082821015620025015762002500620024a2565b5b828203905092915050565b6000620025198262001dd3565b9150620025268362001dd3565b9250827fffffffffffffffffffffffffffffffffffffffffffffffffffffffffffffffff038211156200255e576200255d620024a2565b5b828201905092915050565b7f4e487b7100000000000000000000000000000000000000000000000000000000600052603260045260246000fd5b6000620025a58262001dd3565b91507fffffffffffffffffffffffffffffffffffffffffffffffffffffffffffffffff821415620025db57620025da620024a2565b5b600182019050919050565b620025f18162001e0e565b82525050565b60006060820190506200260e6000830186620025e6565b6200261d6020830185620025e6565b6200262c604083018462001fdd565b949350505050565b600082825260208201905092915050565b7f5265656e7472616e637947756172643a207265656e7472616e742063616c6c00600082015250565b60006200267d601f8362002634565b91506200268a8262002645565b602082019050919050565b60006020820190508181036000830152620026b0816200266e565b9050919050565b7f4f6e6c79206f776e65722063616e20726573616c65206974656d000000000000600082015250565b6000620026ef601a8362002634565b9150620026fc82620026b7565b602082019050919050565b600060208201905081810360008301526200272281620026e0565b9050919050565b7f5072696365206d75737420626520657175616c20746f206c697374696e67207060008201527f7269636500000000000000000000000000000000000000000000000000000000602082015250565b60006200278760248362002634565b9150620027948262002729565b604082019050919050565b60006020820190508181036000830152620027ba8162002778565b9050919050565b600081519050919050565b60005b83811015620027ec578082015181840152602081019050620027cf565b83811115620027fc576000848401525b50505050565b60006200280f82620027c1565b6200281b818562002634565b93506200282d818560208601620027cc565b620028388162002248565b840191505092915050565b6200284e8162001e33565b82525050565b60006060820190506200286b600083018662001fdd565b81810360208301526200287f818562002802565b905062002890604083018462002843565b949350505050565b7f5072696365206d757374206265206174206c6561737420312077656900000000600082015250565b6000620028d0601c8362002634565b9150620028dd8262002898565b602082019050919050565b600060208201905081810360008301526200290381620028c1565b9050919050565b6000608082019050620029216000830187620025e6565b620029306020830186620025e6565b6200293f604083018562001fdd565b6200294e6060830184620020dd565b95945050505050565b7f506c65617365207375626d6974207468652061736b696e67207072696365206960008201527f6e206f7264657220746f20636f6d706c65746520746865207075726368617365602082015250565b6000620029b560408362002634565b9150620029c28262002957565b604082019050919050565b60006020820190508181036000830152620029e881620029a6565b9050919050565b7f436f756e7465723a2064656372656d656e74206f766572666c6f770000000000600082015250565b600062002a27601b8362002634565b915062002a3482620029ef565b602082019050919050565b6000602082019050818103600083015262002a5a8162002a18565b905091905056fe60806040526000600860006101000a81548160ff0219169083151502179055503480156200002c57600080fd5b50604051620019ec380380620019ec8339818101604052810190620000529190620003b6565b80600160006101000a81548173ffffffffffffffffffffffffffffffffffffffff021916908373ffffffffffffffffffffffffffffffffffffffff1602179055508242620000a1919062000460565b6002819055508160039080519060200190620000bf929190620000c9565b5050505062000522565b828054620000d790620004ec565b90600052602060002090601f016020900481019282620000fb576000855562000147565b82601f106200011657805160ff191683800117855562000147565b8280016001018555821562000147579182015b828111156200014657825182559160200191906001019062000129565b5b5090506200015691906200015a565b5090565b5b80821115620001755760008160009055506001016200015b565b5090565b6000604051905090565b600080fd5b600080fd5b6000819050919050565b620001a2816200018d565b8114620001ae57600080fd5b50565b600081519050620001c28162000197565b92915050565b600080fd5b600080fd5b6000601f19601f8301169050919050565b7f4e487b7100000000000000000000000000000000000000000000000000000000600052604160045260246000fd5b6200021d82620001d2565b810181811067ffffffffffffffff821117156200023f576200023e620001e3565b5b80604052505050565b60006200025462000179565b905062000262828262000212565b919050565b600067ffffffffffffffff821115620002855762000284620001e3565b5b6200029082620001d2565b9050602081019050919050565b60005b83811015620002bd578082015181840152602081019050620002a0565b83811115620002cd576000848401525b50505050565b6000620002ea620002e48462000267565b62000248565b905082815260208101848484011115620003095762000308620001cd565b5b620003168482856200029d565b509392505050565b600082601f830112620003365762000335620001c8565b5b815162000348848260208601620002d3565b91505092915050565b600073ffffffffffffffffffffffffffffffffffffffff82169050919050565b60006200037e8262000351565b9050919050565b620003908162000371565b81146200039c57600080fd5b50565b600081519050620003b08162000385565b92915050565b600080600060608486031215620003d257620003d162000183565b5b6000620003e286828701620001b1565b935050602084015167ffffffffffffffff81111562000406576200040562000188565b5b62000414868287016200031e565b925050604062000427868287016200039f565b9150509250925092565b7f4e487b7100000000000000000000000000000000000000000000000000000000600052601160045260246000fd5b60006200046d826200018d565b91506200047a836200018d565b9250827fffffffffffffffffffffffffffffffffffffffffffffffffffffffffffffffff03821115620004b257620004b162000431565b5b828201905092915050565b7f4e487b7100000000000000000000000000000000000000000000000000000000600052602260045260246000fd5b600060028204905060018216806200050557607f821691505b602082108114156200051c576200051b620004bd565b5b50919050565b6114ba80620005326000396000f3fe60806040526004361061009c5760003560e01c80633d827e05116100645780633d827e05146101675780634423c5f1146101925780634b449cba146101d25780638d0f6da3146101fd57806391f9015714610228578063d57bde79146102535761009c565b80631998aeef146100a157806326b387bb146100ab5780632a24f46c146100e85780632e1a7d4d146100ff57806338af3eed1461013c575b600080fd5b6100a961027e565b005b3480156100b757600080fd5b506100d260048036038101906100cd9190610c51565b6105a8565b6040516100df9190610c97565b60405180910390f35b3480156100f457600080fd5b506100fd6105c0565b005b34801561010b57600080fd5b5061012660048036038101906101219190610cde565b61073a565b6040516101339190610d26565b60405180910390f35b34801561014857600080fd5b506101516108ce565b60405161015e9190610d62565b60405180910390f35b34801561017357600080fd5b5061017c6108f4565b6040516101899190610e16565b60405180910390f35b34801561019e57600080fd5b506101b960048036038101906101b49190610cde565b610982565b6040516101c99493929190610e47565b60405180910390f35b3480156101de57600080fd5b506101e76109df565b6040516101f49190610c97565b60405180910390f35b34801561020957600080fd5b506102126109e5565b60405161021f9190610fbd565b60405180910390f35b34801561023457600080fd5b5061023d610b5e565b60405161024a9190610fdf565b60405180910390f35b34801561025f57600080fd5b50610268610b84565b6040516102759190610c97565b60405180910390f35b600160009054906101000a900473ffffffffffffffffffffffffffffffffffffffff1673ffffffffffffffffffffffffffffffffffffffff163373ffffffffffffffffffffffffffffffffffffffff16141561030f576040517f08c379a000000000000000000000000000000000000000000000000000000000815260040161030690611046565b60405180910390fd5b600254421115610354576040517f08c379a000000000000000000000000000000000000000000000000000000000815260040161034b906110b2565b60405180910390fd5b6005543411610398576040517f08c379a000000000000000000000000000000000000000000000000000000000815260040161038f90611144565b60405180910390fd5b60006005541461041d5760055460066000600460009054906101000a900473ffffffffffffffffffffffffffffffffffffffff1673ffffffffffffffffffffffffffffffffffffffff1673ffffffffffffffffffffffffffffffffffffffff16815260200190815260200160002060008282546104159190611193565b925050819055505b33600460006101000a81548173ffffffffffffffffffffffffffffffffffffffff021916908373ffffffffffffffffffffffffffffffffffffffff1602179055503460058190555061046f6000610b8a565b600061047b6000610ba0565b90506040518060800160405280828152602001600460009054906101000a900473ffffffffffffffffffffffffffffffffffffffff1673ffffffffffffffffffffffffffffffffffffffff168152602001600554815260200160001515815250600760008381526020019081526020016000206000820151816000015560208201518160010160006101000a81548173ffffffffffffffffffffffffffffffffffffffff021916908373ffffffffffffffffffffffffffffffffffffffff1602179055506040820151816002015560608201518160030160006101000a81548160ff0219169083151502179055509050507f123a2a99bd109b51e435e65e10a7230bdbd13b8a0fa2f7ee4ef740da1f86f0eb333460405161059d9291906111e9565b60405180910390a150565b60066020528060005260406000206000915090505481565b600254421015610605576040517f08c379a00000000000000000000000000000000000000000000000000000000081526004016105fc9061125e565b60405180910390fd5b600860009054906101000a900460ff1615610655576040517f08c379a000000000000000000000000000000000000000000000000000000000815260040161064c906112f0565b60405180910390fd5b6001600860006101000a81548160ff0219169083151502179055507fdaec4582d5d9595688c8c98545fdd1c696d41c6aeaeb636737e84ed2f5c00eda600460009054906101000a900473ffffffffffffffffffffffffffffffffffffffff166005546040516106c59291906111e9565b60405180910390a1600160009054906101000a900473ffffffffffffffffffffffffffffffffffffffff1673ffffffffffffffffffffffffffffffffffffffff166108fc6005549081150290604051600060405180830381858888f19350505050158015610737573d6000803e3d6000fd5b50565b600080600660003373ffffffffffffffffffffffffffffffffffffffff1673ffffffffffffffffffffffffffffffffffffffff1681526020019081526020016000205490506000811115610801576000600660003373ffffffffffffffffffffffffffffffffffffffff1673ffffffffffffffffffffffffffffffffffffffff1681526020019081526020016000208190555060016007600085815260200190815260200160002060030160006101000a81548160ff02191690831515021790555061083c565b6040517f08c379a00000000000000000000000000000000000000000000000000000000081526004016108339061135c565b60405180910390fd5b3373ffffffffffffffffffffffffffffffffffffffff166108fc829081150290604051600060405180830381858888f193505050506108c35780600660003373ffffffffffffffffffffffffffffffffffffffff1673ffffffffffffffffffffffffffffffffffffffff1681526020019081526020016000208190555060009150506108c9565b60019150505b919050565b600160009054906101000a900473ffffffffffffffffffffffffffffffffffffffff1681565b60038054610901906113ab565b80601f016020809104026020016040519081016040528092919081815260200182805461092d906113ab565b801561097a5780601f1061094f5761010080835404028352916020019161097a565b820191906000526020600020905b81548152906001019060200180831161095d57829003601f168201915b505050505081565b60076020528060005260406000206000915090508060000154908060010160009054906101000a900473ffffffffffffffffffffffffffffffffffffffff16908060020154908060030160009054906101000a900460ff16905084565b60025481565b606060006109f36000610ba0565b905060008167ffffffffffffffff811115610a1157610a106113dd565b5b604051908082528060200260200182016040528015610a4a57816020015b610a37610bae565b815260200190600190039081610a2f5790505b5090506000805b83811015610b54576000600182610a689190611193565b9050600060076000838152602001908152602001600020905080604051806080016040529081600082015481526020016001820160009054906101000a900473ffffffffffffffffffffffffffffffffffffffff1673ffffffffffffffffffffffffffffffffffffffff1673ffffffffffffffffffffffffffffffffffffffff168152602001600282015481526020016003820160009054906101000a900460ff161515151581525050858581518110610b2557610b2461140c565b5b6020026020010181905250600184610b3d9190611193565b935050508080610b4c9061143b565b915050610a51565b5081935050505090565b600460009054906101000a900473ffffffffffffffffffffffffffffffffffffffff1681565b60055481565b6001816000016000828254019250508190555050565b600081600001549050919050565b604051806080016040528060008152602001600073ffffffffffffffffffffffffffffffffffffffff168152602001600081526020016000151581525090565b600080fd5b600073ffffffffffffffffffffffffffffffffffffffff82169050919050565b6000610c1e82610bf3565b9050919050565b610c2e81610c13565b8114610c3957600080fd5b50565b600081359050610c4b81610c25565b92915050565b600060208284031215610c6757610c66610bee565b5b6000610c7584828501610c3c565b91505092915050565b6000819050919050565b610c9181610c7e565b82525050565b6000602082019050610cac6000830184610c88565b92915050565b610cbb81610c7e565b8114610cc657600080fd5b50565b600081359050610cd881610cb2565b92915050565b600060208284031215610cf457610cf3610bee565b5b6000610d0284828501610cc9565b91505092915050565b60008115159050919050565b610d2081610d0b565b82525050565b6000602082019050610d3b6000830184610d17565b92915050565b6000610d4c82610bf3565b9050919050565b610d5c81610d41565b82525050565b6000602082019050610d776000830184610d53565b92915050565b600081519050919050565b600082825260208201905092915050565b60005b83811015610db7578082015181840152602081019050610d9c565b83811115610dc6576000848401525b50505050565b6000601f19601f8301169050919050565b6000610de882610d7d565b610df28185610d88565b9350610e02818560208601610d99565b610e0b81610dcc565b840191505092915050565b60006020820190508181036000830152610e308184610ddd565b905092915050565b610e4181610c13565b82525050565b6000608082019050610e5c6000830187610c88565b610e696020830186610e38565b610e766040830185610c88565b610e836060830184610d17565b95945050505050565b600081519050919050565b600082825260208201905092915050565b6000819050602082019050919050565b610ec181610c7e565b82525050565b610ed081610c13565b82525050565b610edf81610d0b565b82525050565b608082016000820151610efb6000850182610eb8565b506020820151610f0e6020850182610ec7565b506040820151610f216040850182610eb8565b506060820151610f346060850182610ed6565b50505050565b6000610f468383610ee5565b60808301905092915050565b6000602082019050919050565b6000610f6a82610e8c565b610f748185610e97565b9350610f7f83610ea8565b8060005b83811015610fb0578151610f978882610f3a565b9750610fa283610f52565b925050600181019050610f83565b5085935050505092915050565b60006020820190508181036000830152610fd78184610f5f565b905092915050565b6000602082019050610ff46000830184610e38565b92915050565b7f4f776e65722063616e6e6f74206269642e000000000000000000000000000000600082015250565b6000611030601183610d88565b915061103b82610ffa565b602082019050919050565b6000602082019050818103600083015261105f81611023565b9050919050565b7f5468652061756374696f6e2068617320616c726561647920656e6465642e0000600082015250565b600061109c601e83610d88565b91506110a782611066565b602082019050919050565b600060208201905081810360008301526110cb8161108f565b9050919050565b7f546865726520697320616c7265616479206120686967686572206f722065717560008201527f616c206269642e00000000000000000000000000000000000000000000000000602082015250565b600061112e602783610d88565b9150611139826110d2565b604082019050919050565b6000602082019050818103600083015261115d81611121565b9050919050565b7f4e487b7100000000000000000000000000000000000000000000000000000000600052601160045260246000fd5b600061119e82610c7e565b91506111a983610c7e565b9250827fffffffffffffffffffffffffffffffffffffffffffffffffffffffffffffffff038211156111de576111dd611164565b5b828201905092915050565b60006040820190506111fe6000830185610e38565b61120b6020830184610c88565b9392505050565b7f41756374696f6e20686173206e6f7420656e646564207965742e000000000000600082015250565b6000611248601a83610d88565b915061125382611212565b602082019050919050565b600060208201905081810360008301526112778161123b565b9050919050565b7f41756374696f6e2068617320616c726561647920656e6465642c20617563746960008201527f6f6e20656e6465642063616c6c656420616c72656164792e0000000000000000602082015250565b60006112da603883610d88565b91506112e58261127e565b604082019050919050565b60006020820190508181036000830152611309816112cd565b9050919050565b7f4e6f2070656e64696e672072657475726e732e00000000000000000000000000600082015250565b6000611346601383610d88565b915061135182611310565b602082019050919050565b6000602082019050818103600083015261137581611339565b9050919050565b7f4e487b7100000000000000000000000000000000000000000000000000000000600052602260045260246000fd5b600060028204905060018216806113c357607f821691505b602082108114156113d7576113d661137c565b5b50919050565b7f4e487b7100000000000000000000000000000000000000000000000000000000600052604160045260246000fd5b7f4e487b7100000000000000000000000000000000000000000000000000000000600052603260045260246000fd5b600061144682610c7e565b91507fffffffffffffffffffffffffffffffffffffffffffffffffffffffffffffffff82141561147957611478611164565b5b60018201905091905056fea264697066735822122030b44a67682a055fbc95be2e8a01c5db034561de6f919468c027b9fa041b310f64736f6c634300080a0033a264697066735822122099a8bb0aeac5ce573d91ba6f5de604af6beb0236ebb5cd7b57d936f5a8032e9364736f6c634300080a0033",
  "immutableReferences": {},
  "source": "pragma solidity ^0.8.10;\n\nimport \"@openzeppelin/contracts/utils/Counters.sol\";\nimport \"@openzeppelin/contracts/security/ReentrancyGuard.sol\";\nimport \"@openzeppelin/contracts/token/ERC721/ERC721.sol\";\nimport \"./NFTAuction.sol\";\n\ncontract NFTMarket is ReentrancyGuard {\n  using Counters for Counters.Counter;\n  Counters.Counter private _itemIds;\n  Counters.Counter private _itemsSold;\n\n  address payable owner;\n  uint256 listingPrice = 0.025 ether;\n\n  constructor() {\n    owner = payable(msg.sender);\n  }\n\n  struct MarketItem {\n    uint itemId;\n    address nftContract;\n    uint256 tokenId;\n    address payable seller;\n    address payable owner;\n    uint256 price;\n    bool sold;\n    address auction;\n  }\n\n  mapping(uint256 => MarketItem) private idToMarketItem;\n\n  event MarketItemCreated (\n    uint indexed itemId,\n    address indexed nftContract,\n    uint256 indexed tokenId,\n    address seller,\n    address owner,\n    uint256 price,\n    bool sold\n  );\n  \n\n  /* Returns the listing price of the contract */\n  function getListingPrice() public view returns (uint256) {\n    return listingPrice;\n  }\n  \n  /* Places an item for sale on the marketplace */\n  function createMarketItem(\n    address nftContract,\n    uint256 tokenId,\n    uint256 price,\n    bool _isAuction,\n    uint256 _biddingTime,\n    string memory _auctionEndDate\n  ) public payable nonReentrant {\n    require(price > 0, \"Price must be at least 1 wei\");\n    require(msg.value == listingPrice, \"Price must be equal to listing price\");\n\n    _itemIds.increment();\n    uint256 itemId = _itemIds.current();\n\n    if(_isAuction) {\n      NFTAuction auc = new NFTAuction(_biddingTime,_auctionEndDate, payable(msg.sender));\n      idToMarketItem[itemId] =  MarketItem(\n      itemId,\n      nftContract,\n      tokenId,\n      payable(msg.sender),\n      payable(address(0)),\n      price,\n      false,\n      address(auc)\n    );\n    \n    } else {\n      idToMarketItem[itemId] =  MarketItem(\n      itemId,\n      nftContract,\n      tokenId,\n      payable(msg.sender),\n      payable(address(0)),\n      price,\n      false,\n      address(0)\n    );\n    }\n  \n    \n\n    IERC721(nftContract).transferFrom(msg.sender, address(this), tokenId);\n\n    emit MarketItemCreated(\n      itemId,\n      nftContract,\n      tokenId,\n      msg.sender,\n      address(0),\n      price,\n      false\n    );\n  }\n\n  /* resale bought item */\n  function resaleBoughtItem(\n    address nftContract,\n    uint256 itemId,\n    uint256 price,\n    bool _isAuction,\n    uint256 _biddingTime,\n    string memory _auctionEndDate\n    ) public payable nonReentrant {\n    require(msg.sender == idToMarketItem[itemId].owner, \"Only owner can resale item\");\n    require(msg.value == listingPrice, \"Price must be equal to listing price\");\n\n    uint tokenId = idToMarketItem[itemId].tokenId;\n\n    if(_isAuction) {\n      NFTAuction auc = new NFTAuction(_biddingTime,_auctionEndDate, payable(msg.sender));\n      idToMarketItem[itemId].auction = address(auc);\n    } \n    idToMarketItem[itemId].price = price;\n    idToMarketItem[itemId].seller = payable(msg.sender);\n    idToMarketItem[itemId].owner = payable(address(0));\n    idToMarketItem[itemId].sold = false;\n    \n    IERC721(nftContract).transferFrom(msg.sender, address(this), tokenId);\n    _itemsSold.decrement();\n  }\n\n  /* Creates the sale of a marketplace item */\n  /* Transfers ownership of the item, as well as funds between parties */\n  function createMarketSale(\n    address nftContract,\n    uint256 itemId\n    ) public payable nonReentrant {\n    uint price = idToMarketItem[itemId].price;\n    uint tokenId = idToMarketItem[itemId].tokenId;\n    require(msg.value == price, \"Please submit the asking price in order to complete the purchase\");\n\n    idToMarketItem[itemId].seller.transfer(msg.value);\n    IERC721(nftContract).transferFrom(address(this), msg.sender, tokenId);\n    idToMarketItem[itemId].owner = payable(msg.sender);\n    idToMarketItem[itemId].sold = true;\n    _itemsSold.increment();\n    payable(owner).transfer(listingPrice);\n  }\n\n  /* accept highest bid and transfer */\n  function transferAsset(address nftContract, uint256 _itemId, address _buyer) public returns (bool) {\n    uint tokenId = idToMarketItem[_itemId].tokenId;\n    IERC721(nftContract).transferFrom(address(this), _buyer, tokenId);\n    idToMarketItem[_itemId].owner = payable(_buyer);\n    idToMarketItem[_itemId].sold = true;\n    _itemsSold.increment();\n    return true;\n  }\n\n  /* Returns all unsold market items */\n  function fetchMarketItems() public view returns (MarketItem[] memory) {\n    uint itemCount = _itemIds.current();\n    uint unsoldItemCount = _itemIds.current() - _itemsSold.current();\n    uint currentIndex = 0;\n\n    MarketItem[] memory items = new MarketItem[](unsoldItemCount);\n    for (uint i = 0; i < itemCount; i++) {\n      if (idToMarketItem[i + 1].owner == address(0)) {\n        uint currentId = i + 1;\n        MarketItem storage currentItem = idToMarketItem[currentId];\n        items[currentIndex] = currentItem;\n        currentIndex += 1;\n      }\n    }\n    return items;\n  }\n\n  /* Returns onlyl items that a user has purchased */\n  function fetchMyNFTs() public view returns (MarketItem[] memory) {\n    uint totalItemCount = _itemIds.current();\n    uint itemCount = 0;\n    uint currentIndex = 0;\n\n    for (uint i = 0; i < totalItemCount; i++) {\n      if (idToMarketItem[i + 1].owner == msg.sender) {\n        itemCount += 1;\n      }\n    }\n\n    MarketItem[] memory items = new MarketItem[](itemCount);\n    for (uint i = 0; i < totalItemCount; i++) {\n      if (idToMarketItem[i + 1].owner == msg.sender) {\n        uint currentId = i + 1;\n        MarketItem storage currentItem = idToMarketItem[currentId];\n        items[currentIndex] = currentItem;\n        currentIndex += 1;\n      }\n    }\n    return items;\n  }\n\n  /* Returns only items a user has created */\n  function fetchItemsCreated() public view returns (MarketItem[] memory) {\n    uint totalItemCount = _itemIds.current();\n    uint itemCount = 0;\n    uint currentIndex = 0;\n\n    for (uint i = 0; i < totalItemCount; i++) {\n      if (idToMarketItem[i + 1].seller == msg.sender) {\n        itemCount += 1;\n      }\n    }\n\n    MarketItem[] memory items = new MarketItem[](itemCount);\n    for (uint i = 0; i < totalItemCount; i++) {\n      if (idToMarketItem[i + 1].seller == msg.sender) {\n        uint currentId = i + 1;\n        MarketItem storage currentItem = idToMarketItem[currentId];\n        items[currentIndex] = currentItem;\n        currentIndex += 1;\n      }\n    }\n    return items;\n  }\n\n  /* get item by id */\n  function getItemByID(uint256 _id) public view returns (MarketItem memory) {\n    return idToMarketItem[_id];\n  }\n}",
  "sourcePath": "/Users/apple/Documents/blockchain/truffle-next-3peaks/contracts/NFTMarket.sol",
  "compiler": {
    "name": "solc",
    "version": "0.8.10+commit.fc410830.Emscripten.clang"
  },
  "schemaVersion": "3.4.4",
  "updatedAt": "2022-02-02T13:31:27.140Z",
  "networkType": "ethereum",
  "devdoc": {
    "kind": "dev",
    "methods": {},
    "version": 1
  },
  "userdoc": {
    "kind": "user",
    "methods": {},
    "version": 1
  }
}